:100000001BC0B3C0A8C031C030C02FC02EC020C399
:100010002CC02BC02AC029C028C0E9C226C025C0D8
:1000200024C023C022C021C020C072C1ACC1B6C14F
:10003000F2C179C152C2BDC211241FBECFEDCDBFE6
:1000400010E0A0E6B0E0E4E7F7E002C005900D9212
:10005000A439B107D9F720E0A4E9B0E001C01D92AE
:10006000AF39B207E1F756D083C3CACF82B38067F6
:1000700082BB0895FC01848114820895CF93DF939D
:10008000EC01D8D22B81213089F028F0223019F1EF
:100090002330B9F13CC0E881F98130812A812323E2
:1000A000B1F521E02B839E838D8331C0E881F981F6
:1000B00040813A8134234D815E81841B950B33232B
:1000C00029F0C29708F02C831B8221C0883E934000
:1000D000F0F082E014C0E881F98140813A81342354
:1000E0004D815E81841B950B332321F0883E934024
:1000F00050F7EACF803A9F4050F083E08C838B83A7
:1001000006C0E881F98190818A818923E9F6DF912F
:10011000CF910895479A82D2A9DF9AD083E390E0E5
:10012000ABD2789485E890E0A9DF8EE790E0A6DF77
:1001300020E030E04BE950E065E870E08FE690E0C9
:10014000BED024E030E047E950E06EE770E080E6A2
:1001500090E0B5D0E7CF1F920F920FB60F92112407
:100160000F900FBE0F901F9018951F920F920FB611
:100170000F9211240F900FBE0F901F901895CF93E0
:10018000DF93FC0181859285A385B4850196A11D2D
:10019000B11D81879287A387B487C381D481DE0193
:1001A00012972C91458135818FE090E002C0880F35
:1001B000991F4A95E2F7809590952823A085B0E095
:1001C000A457BF4F9C91892F01C0880F3A95EAF739
:1001D000822B888380858150883008F087E0808773
:1001E000DF91CF910895CF93DF93FC0181859285B4
:1001F000A385B4850197A109B10981879287A38757
:10020000B487C381D481DE0112972C914581358159
:100210008FE090E002C0880F991F4A95E2F7809521
:1002200090952823A085B0E0A457BF4F9C91892FBB
:1002300001C0880F3A95EAF7822B888380858F5F0B
:10024000883010F4808701C01086DF91CF91089527
:1002500010929700109298001092990010929A00B4
:1002600010929B0010929C0010929D0010929E0094
:100270008FEF87BB86990CC040E050E0BA0184E064
:1002800090E053D240E050E0BA0180E090E04DD2DF
:1002900084E090E047D26093970070939800809339
:1002A000990090939A0080E090E03CD260939B008C
:1002B00070939C0080939D0090939E0008958F9270
:1002C0009F92AF92BF92CF92DF92EF92FF920F93E5
:1002D0001F93CF93DF93EC017B018A016901AFD1BA
:1002E000A9D15C01F80180819181A281B381892B20
:1002F0008A2B8B2B11F485E08E83EE818E2F90E07C
:100300008730910508F057C1FC01EB5EFF4F09945F
:10031000C701B0DE9F81813011F097FF5BC1992347
:1003200079F184E02EC08F8187FFCDC0C601FAD15C
:10033000F80160837183828393832F812F77F22E5C
:100340002F83608171818281938124E630E040E0D7
:1003500050E0C6D1CA01B9012F2D30E040E050E095
:10036000A6D1F801608371838283938389849A8400
:10037000AB84BC84681579058A059B0508F09CC090
:1003800082E08E8327C1C70175DE9F81813011F025
:1003900097FF20C19111C5CF83E0F3CF8D859E8556
:1003A0009501281B390B2230310520F0CE011BDFCF
:1003B000BE86AD86C7015EDE9F81E881F98181300E
:1003C00071F020818A81822351F049855A856B859D
:1003D0007C85452B462B472B11F097FFFBC02081D6
:1003E0008A81822321F419861A861B861C8699230A
:1003F00011F084E001C081E08E8388858150888778
:10040000883010F087E0888788858150883008F030
:1004100087E0888731C08D859E85F501E81BF90B43
:10042000329720F0CE01ABDEBE86AD86C70122DE5C
:100430009F81813081F0C984DA84EB84FC84F801E7
:100440004081518162817381C416D506E606F706A4
:1004500010F497FFBFC0992319F084E08E8301C088
:100460001E8288858F5F8887883008F01886888587
:100470008F5F883070F218863D81EB81FC8120818E
:100480008FE090E002C0880F991F3A95E2F78095BF
:1004900090958223808369857A858B859C85DF9101
:1004A000CF911F910F91FF90EF90DF90CF90BF9071
:1004B000AF909F908F90EBC086169706A806B9065E
:1004C00008F46ACF01C01F82C6012CD1F8016083F5
:1004D0007183828393831E827DC0C701CBDD81300F
:1004E00009F078C08FE0E82EF12CE881F981908145
:1004F0008A818923D1F19ED0AC018D859E859A0198
:10050000281B390B2230310580F389859A85AB850C
:10051000BC850196A11DB11D89879A87AB87BC87D1
:10052000EB81FC81DF0112978C919D816D81970198
:1005300002C0220F331F9A95E2F72095309582234F
:10054000A885B0E0A457BF4F9C91292F01C0220F6E
:100550006A95EAF7282B208388858F5F8887883003
:1005600008F018865E874D87C0CF49855A856B8510
:100570007C85C601DAD089859A85AB85BC85F80172
:1005800080839183A283B38319861A861B861C8677
:1005900081E08E83888581508887883010F087E0DD
:1005A0008887888581508887883028F087E0888709
:1005B00002C018BAFFCF3D81EB81FC8120818FE022
:1005C00090E002C0880F991F3A95E2F780959095C8
:1005D00082238083DF91CF911F910F91FF90EF9045
:1005E000DF90CF90BF90AF909F908F9008951F9213
:1005F0000F920FB60F9211248F939F9380919400C6
:1006000090919500019690939500809394009F910E
:100610008F910F900FBE0F901F9018958DE786BF9A
:1006200080B7826080BF83B7836083BF89B78160F2
:1006300089BF089580919400909195000895FC01E0
:1006400090919600992319F097831092960008953F
:100650001F920F920FB60F9211248F938BB18C7152
:1006600011F08CB103C08CB1809396008F910F90E4
:100670000FBE0F901F90189592B989B988E98AB971
:1006800086E083B908955D9BFECF8CB908951F93D2
:10069000CF93DF93EB01182F892FF5DF812FF3DF45
:1006A0008D2FF1DF8C2FDF91CF911F91ECCFEE27B3
:1006B000FF27AA27BB2708C0A20FB31FE41FF51FFF
:1006C000220F331F441F551F969587957795679581
:1006D00098F37040A9F7009799F7BD01CF010895ED
:1006E000A1E21A2EAA1BBB1BFD010DC0AA1FBB1F36
:1006F000EE1FFF1FA217B307E407F50720F0A21BA8
:10070000B30BE40BF50B661F771F881F991F1A9414
:1007100069F760957095809590959B01AC01BD013E
:10072000CF010895A6E144E00AC0242F15D0252F5B
:1007300013D000C010D0272F0FC0A82F862FE82F6E
:10074000E199FECF05C0EEBBE09AE3950DB20D92A4
:100750004150C8F70895262FE199FECF1CBA8EBBF1
:100760002DBB0FB6F894E29AE19A0FBE0196089558
:04077000F894FFCF2B
:1007740030000838000400000000000000000030D1
:1007840000043800000000000000000000003000F9
:1007940020000000003000100000000001030206E9
:0407A400040C080930
:00000001FF
